:020000040000FA
:100000000C94F71C0C94281D0C94281D0C94281D8E
:100010000C94281D0C94281D0C94281D0C94281D4C
:100020000C94281D0C94281D0C94281D0C94281D3C
:100030000C94281D0C94281D0C94281D0C94281D2C
:100040000C94281D0C9477BC0C94281D0C94281D2E
:100050000C94281D0C94281D0C94B2B70C9455B721
:100060000C94281D0C94F8810C94281D0C94281DC8
:100070000C94281D0C94281D0C94281D0C94281DEC
:100080000C94281D0C94281D0C94281D0C94281DDC
:100090000C94281D0C94281D0C94281D0C94C5400C
:1000A0000C94281D0C94281D0C94281D0C94281DBC
:1000B0000C94281D0C94281D0C94281D0C94281DAC
:1000C0000C94281D0C94281D0C94281D0C94281D9C
:1000D0000C94281D0C94281D0C94281D0C94281D8C
:1000E0000C94281D084AD73B3BCE016E84BCBFFD53
:1000F000C12F3D6C74319ABD56833DDA3D00C77FF8
:1001000011BED9E4BB4C3E916BAAAABE0000008090
:100110003F05A84CCDB2D44EB93836A9020C50B91F
:10012000918688083CA6AAAA2ABE000000803F004B
:100130000C948DAF0C946E200C94565A0C943BB4D6
:100140000C9445A30C9401A30C942E200C94B4663B
:100150000C941FB50C9447A30C94DF7B0C942B5A82
:100160000C94D8B40C941E250C94D44B0C94B14A26
:100170000C9413240C944FA30C9432600C94803F85
:100180000C94CBA20C9430200C943DA30C94A66646
:100190000C9485660C94FCB50C9415B50C942062F7
:1001A0000C9445450C94D5A20C94FFB60C9407A36F
:1001B0000C94FA480C9437B40C9431A30C9476AB9D
:1001C0000C9421A30C9456B50C942EB40C944DA30E
:1001D0000C9404C40C94C5A20C9449A30C94FBA2E7
:1001E0000C94F15B0C9415400C9453B40C944BA3F9
:1001F0000C940DA30C944B540C94755A0C9410B49D
:100200000C9402AF0C9447280C94D7A20C94864708
:100210000C94DAAC0C9403B50C94183D0C948CAD92
:100220000C94E4A20C948F7D0C94BC5F0C940F2072
:100230000C9426B40C9470520C94CB200C94FA4B72
:100240000C9411A30C94C8500C94F7790C94DDA273
:100250000C946AB50C945EAD0C9480C60C94C26686
:100260000C946BA30C9429640C94EBA20C94E022E4
:100270000C94B0AF0C945C350C94FBB40C942A3500
:100280000C9433A30C94C9A20C944FB40C94F95061
:100290000C94CE480C94A85E0C9439A30C9456414F
:1002A0000C943A7B0C943C1D0C9441A30C94DE27D7
:1002B0000C94063E0C948F530C94FA510C947C7A57
:1002C0000C943FA30C94515F0C9441B60C942DA355
:1002D0000C94F9A20C949E200C9451A30C94DBA2D4
:1002E0000C9442B50C94947E0C94DDB40C945F6233
:1002F0000C94DB760C9457B40C943B530C94A96289
:100300000C9443A30C94F0440C94CC600C9468615E
:100310000C94FA660C94644F0C9417A30C94315F00
:100320000C945C600C94D1A20C940BA30C9429B592
:100330000C94583F0C946BAA0C94D0B40C94F3A278
:100340000C9445200C94ABAA0C9428610C94D066B4
:100350000C94E2A20C9469A30C94E7B40C94D028FA
:100360000C94925B0C9427A30C94EA630C945DB4F8
:100370000C9422B40C94F5520C94E05A0C9406ADF3
:100380000C949E250C94E2280C9493A40C9445B4F0
:100390000C94114B0C946A490C94A5460C9461B4CE
:1003A0000C94443C0C94C43E0C94AB630C940BB57D
:1003B0000C9461530C9435540C940BB40C941FA3FF
:1003C0000C9468C30C94C7D90C94C97E0C94D96E54
:1003D0000C94DE660C94D3790C943B430C948CAC57
:1003E0000C94C65D0C94037E0C9460B50C946FB5B0
:1003F0000C94B9A20C94943A0C9435A30C94AC3C94
:100400000C942AB40C9438B50C942AA30C94A4A38D
:100410000C94597E0C94DC4C0C9419A30C94E9A216
:100420000C943F560C94A2600C94ED790C94BBA2F2
:100430000C944CB50C9430500C94E0790C94F1B4BD
:100440000C9431B40C9409280C94CFA20C946864D9
:100450000C94E5D90C94707B0C94EC660C94431DC1
:100460000C94BE5E0C9405A30C94F3620C9480AAC9
:100470000C9441B40C943B1D0C94D94E0C94397DD2
:100480000C944A3D0C9437A30C94C1A20C94B4A2D2
:100490000C9496660C9449B40C9413A30C94FFA28C
:1004A0000C94D9380C94F1A20C9458280C94102078
:1004B0000C94474C0C943BA30C94A3434E414E49DF
:1004C0004E495459494E46CDCCCC3D0AD7233C1712
:1004D000B7D13877CC2B329595E6241FB14F0A005F
:1004E0000020410000C84200401C4620BCBE4CCA4F
:1004F0001B0E5AAEC59D7453657474696E67732084
:1005000053746F726564002044002049002020204D
:100510004D33303120500050494420736574746964
:100520006E67733A00205A0020590020204D323067
:1005300036205800486F6D65206F666673657420BD
:10054000286D6D293A00204500205A0020580020CF
:10055000420020540020204D3230352053004164A9
:1005600076616E636564207661726961626C657341
:100570003A20533D4D696E2066656564726174650D
:1005800020286D6D2F73292C20543D4D696E2074E9
:10059000726176656C206665656472617465202899
:1005A0006D6D2F73292C20423D6D696E696D756DDF
:1005B000207365676D656E742074696D6520286DA4
:1005C00073292C20583D6D6178696D756D205859DF
:1005D000206A65726B20286D6D2F73292C20205A9C
:1005E0003D6D6178696D756D205A206A65726B206A
:1005F000286D6D2F73292C2020453D6D6178696D24
:10060000756D2045206A65726B20286D6D2F7329EA
:100610000020540020204D323034205300416363C9
:10062000656C65726174696F6E3A20533D616363F6
:10063000656C65726174696F6E2C20543D726574CF
:100640007261637420616363656C65726174696F64
:100650006E00204500205A0020590020204D3230E5
:10066000312058004D6178696D756D204163636577
:100670006C65726174696F6E20286D6D2F733229FD
:100680003A00204500205A0020590020204D3230E9
:10069000332058004D6178696D756D20666565641D
:1006A000726174657320286D6D2F73293A0020459F
:1006B00000205A0020590020204D39322058005384
:1006C000746570732070657220756E69743A005697
:1006D0003031300053746F726564207365747469CF
:1006E0006E6773207265747269657665640048612F
:1006F0007264636F6465642044656661756C742020
:1007000053657474696E6773204C6F61646564002F
:100710006563686F3A002200656E717565696E6782
:100720002022002200656E717565696E67202200C7
:1007300000005743000052430000614300000000E6
:100740000000000000000000000000000000524314
:100750000000614343617264206572726F723A00F7
:100760004E6F74205344207072696E74696E670016
:100770002F005344207072696E74696E672062792D
:10078000746520002E0044656C6574696F6E206688
:1007900061696C65642C2046696C653A2000466985
:1007A0006C652064656C657465643A002E006F703A
:1007B000656E206661696C65642C2046696C653ADB
:1007C0002000504944204175746F74756E65206631
:1007D000696E69736865642120507574207468655A
:1007E000204B702C204B6920616E64204B64206389
:1007F0006F6E7374616E747320696E746F20436FD3
:100800006E66696775726174696F6E2E6800504913
:1008100044204175746F74756E65206661696C65FE
:1008200064212074696D656F75740020403A006F13
:100830006B20543A006F6B20423A005049442041EB
:1008400075746F74756E65206661696C65642120CE
:1008500054656D706572617475726520746F6F2078
:100860006869676800204B643A2000204B693A2091
:1008700000204B703A200020436C61737369632041
:1008800050494420002054753A2000204B753A20EE
:1008900000206D61783A2000206D696E3A200020BA
:1008A000643A200020626961733A20005049442074
:1008B0004175746F74756E65207374617274005045
:1008C0004944204175746F74756E65206661696C6A
:1008D00065642E2042616420657874727564657267
:1008E000206E756D6265722E000D0A003F00566520
:1008F0007273696F6E204533447636312D5248420B
:10090000000D0A00556E6B6E6F776E20636F6D6D14
:10091000616E643A2000544553540D0A002200557C
:100920006E6B6E6F776E20636F6D6D616E643A20D3
:100930002200456C656374726F6E6963735F7465E2
:1009400073740041637469766520457874727564C8
:1009500065723A2000496E76616C6964206578742E
:10096000727564657200540020423A300020423AA9
:1009700031006F6B20523A0020633A0020643A0045
:1009800020693A0020703A006F6B002200556E6BB0
:100990006E6F776E20636F6D6D616E643A2022001A
:1009A0006F70656E00545249474745524544007A7E
:1009B0005F6D61783A20006F70656E005452494750
:1009C000474552454400795F6D61783A20006F7069
:1009D000656E0054524947474552454400785F6D63
:1009E000696E3A20005265706F7274696E67206597
:1009F0006E6473746F70207374617475730046490C
:100A0000524D574152455F4E414D453A4D61726CD2
:100A1000696E20556C74696D616B6572323B205351
:100A20007072696E7465722F6772626C206D61738B
:100A300068757020666F722067656E362046495271
:100A40004D574152455F55524C3A687474703A2F75
:100A50002F6769746875622E636F6D2F556C7469AA
:100A60006D616B65722050524F544F434F4C5F562F
:100A7000455253494F4E3A312E30204D414348495B
:100A80004E455F545950453A556C74696D616B65BC
:100A9000722045585452554445525F434F554E5469
:100AA0003A310A005A3A00593A0020436F756E7481
:100AB00020583A2000453A005A3A00593A00583A2C
:100AC0000020423A0020453A00543A003F002057A7
:100AD0003A0020453A00543A002042403A00204073
:100AE0003A00202F0020423A00202F006F6B205444
:100AF0003A002569206D696E2C2025692073656395
:100B000000456E642066696C65206C6973740042F0
:100B10006567696E2066696C65206C697374005244
:100B20006573656E643A20006F6B005072696E7475
:100B300065722068616C7465642E206B696C6C282A
:100B4000292063616C6C656421005072696E746564
:100B5000722073746F707065642064756520746FA3
:100B6000206572726F72732E2046697820746865F2
:100B7000206572726F7220616E6420757365204DFE
:100B800039393920746F20726573746172742E2044
:100B90002854656D70657261747572652069732083
:100BA00072657365742E20536574206974206166C4
:100BB0007465722072657374617274696E6729005E
:100BC0004D31303920496E76616C696420657874E6
:100BD000727564657220004D31303520496E766142
:100BE0006C696420657874727564657220004D319B
:100BF000303420496E76616C696420657874727552
:100C00006465722000456E6473746F70207374693C
:100C10006C6C2070726573736564206166746572B4
:100C2000206261636B696E67206F66662E20456E79
:100C30006473746F7020737475636B3F000000E021
:100C4000400000E0400000E040456E6473746F7047
:100C5000206E6F74207072657373656420616674B2
:100C6000657220686F6D696E6720646F776E2E20E5
:100C7000456E6473746F702062726F6B656E3F00B7
:100C8000456E6473746F70206E6F7420707265733C
:100C900073656420616674657220686F6D696E6744
:100CA00020646F776E2E20456E6473746F702062BF
:100CB000726F6B656E3F00FF01010000574300003B
:100CC0005243000061430000211042206330844001
:100CD000A550C660E770088129914AA16BB18CC10B
:100CE000ADD1CEE1EFF13112100273325222B55282
:100CF0009442F772D662399318837BB35AA3BDD35B
:100D00009CC3FFF3DEE36224433420040114E66451
:100D1000C774A44485546AA54BB528850995EEE5AA
:100D2000CFF5ACC58DD55336722611163006D77661
:100D3000F6669556B4465BB77AA719973887DFF7FA
:100D4000FEE79DD7BCC7C448E5588668A778400829
:100D5000611802282338CCC9EDD98EE9AFF948894A
:100D600069990AA92BB9F55AD44AB77A966A711AC1
:100D7000500A333A122AFDDBDCCBBFFB9EEB799B9A
:100D8000588B3BBB1AABA66C877CE44CC55C222C11
:100D9000033C600C411CAEED8FFDECCDCDDD2AADEA
:100DA0000BBD688D499D977EB66ED55EF44E133EA1
:100DB000322E511E700E9FFFBEEFDDDFFCCF1BBF3A
:100DC0003AAF599F788F8891A981CAB1EBA10CD114
:100DD0002DC14EF16FE18010A100C230E32004501C
:100DE000254046706760B9839893FBA3DAB33DC38F
:100DF0001CD37FE35EF3B1029012F322D23235426C
:100E0000145277625672EAB5CBA5A89589856EF51E
:100E10004FE52CD50DC5E234C324A01481046674BB
:100E2000476424540544DBA7FAB79987B8975FE76E
:100E30007EF71DC73CD7D326F2369106B01657660B
:100E40007676154634564CD96DC90EF92FE9C899F6
:100E5000E9898AB9ABA94458654806782768C0185B
:100E6000E1088238A3287DCB5CDB3FEB1EFBF98BCE
:100E7000D89BBBAB9ABB754A545A376A167AF10AAB
:100E8000D01AB32A923A2EFD0FED6CDD4DCDAABDDE
:100E90008BADE89DC98D267C076C645C454CA23CFB
:100EA000832CE01CC10C1FEF3EFF5DCF7CDF9BAFAE
:100EB000BABFD98FF89F176E367E554E745E932E4B
:100EC000B23ED10EF01E7C3C3E5E2B3D3F2F5B5D63
:100ED0003B2C2A225C005072696E74696E67207721
:100EE000697468205553422E2E2E00756C74696DFE
:100EF000616B65722E636F6D2F4552303700476FFF
:100F000020746F3A0058206F7220592073776974EB
:100F1000636820737475636B00756C74696D616BC5
:100F200065722E636F6D2F4552303700476F207406
:100F30006F3A0058206F7220592073776974636884
:100F40002062726F6B656E00756C74696D616B65A4
:100F5000722E636F6D2F4552303600476F20746FCD
:100F60003A005A2073776974636820737475636BF1
:100F700000756C74696D616B65722E636F6D2F45C2
:100F800052303500476F20746F3A005A20737769EA
:100F90007463682062726F6B656E00756C74696D46
:100FA000616B65722E636F6D2F4552303400476F51
:100FB00020746F3A005361666574792063697263C7
:100FC00075697400756C74696D616B65722E636F01
:100FD0006D2F4552303300476F20746F3A004865DB
:100FE00061746572206572726F7200756C74696DE0
:100FF000616B65722E636F6D2F4552303200476F03
:1010000020746F3A0054656D702073656E736F7253
:101010002042454400756C74696D616B65722E6386
:101020006F6D2F4552303100476F20746F3A005476
:10103000656D702073656E736F72004552524F522A
:10104000202D2053544F50504544004D41494E549B
:10105000454E414E4345004D4154455249414C0097
:101060005052494E540043414E43454C0050726526
:10107000763A2000000000000000005F000000073A
:10108000000700147F147F14242A7F2A12231308D8
:10109000646236495522500005030000001C2241BD
:1010A000000041221C00082A1C2A0808083E0808E3
:1010B00000503000000808080808006060000020A8
:1010C000100804023E5149453E00427F4000426103
:1010D0005149462141454B311814127F102745458F
:1010E00045393C4A494930017109050336494949A6
:1010F00036064949291E00363600000056360000E3
:10110000000814224114141414144122140800027B
:1011100001510906324979413E7E1111117E7F4904
:101120004949363E414141227F4141221C7F494984
:1011300049417F090901013E414151327F080808B8
:101140007F00417F41002040413F017F0814224140
:101150007F404040407F0204027F7F0408107F3EB2
:101160004141413E7F090909063E4151215E7F0907
:10117000192946464949493101017F01013F404053
:10118000403F1F2040201F7F2018207F6314081439
:10119000630304780403615149454300007F4141E2
:1011A000020408102041417F0000040201020440B3
:1011B00040404040000102040020545454787F48CD
:1011C0004444383844444420384444487F385454D4
:1011D0005418087E090102081454543C7F08040482
:1011E0007800447D40002040443D00007F102844AA
:1011F00000417F40007C041804787C08040478389F
:10120000444444387C14141408081414187C7C08D2
:101210000404084854545420043F4440203C4040B7
:10122000207C1C2040201C3C4030403C442810289E
:10123000440C5050503C4464544C44000836410027
:1012400000007F0000004136080008082A1C08083A
:101250001C2A08082073656300206D696E002068F1
:101260006F75720020686F75727300627574746FA9
:101270006E20746F20636F6E74696E756500556CB7
:1012800074696D616B65722120507265737320748F
:1012900068650073746172747570206F6620796F71
:1012A00075720057656C636F6D6520746F2074688C
:1012B0006520666972737400312F323100434F4EDE
:1012C00054494E554500473120462569205A256925
:1012D000205825692059256900473238205A302086
:1012E0005830205930006275696C64706C617465A7
:1012F0002E006F662061646A757374696E67207969
:101300006F7572007468726F756768207468652005
:1013100070726F6365737300492077696C6C206726
:101320007569646520796F750043414E43454C00F3
:10133000434F4E54494E55450047312046256920BC
:101340005A256900473238205A3000612066697298
:1013500073742072756E2077697A6172642E0077DB
:10136000616C6B20796F75207468726F75676800A7
:101370006669727374207374617274757020492089
:1013800077696C6C00426563617573652074686988
:10139000732069732074686500322F323100434F27
:1013A0004E54494E554500473120462569205A255F
:1013B000692058256920592569004732382058305E
:1013C00020593000676F696E6720746F20646F204A
:1013D00074686174206E6F772E0061646A7573742F
:1013E0006D656E74732C207765206172650077657A
:1013F000206E65656420746F20646F20736F6D6567
:10140000004166746572207472616E73706F7274DD
:101410006174696F6E00332F323100434F4E54496F
:101420004E554500473120462569205A3000473146
:101430002046256920582569205925690047312013
:10144000462569205A350066726F6D2074686520E4
:101450006275696C64706C6174652E0061206D69E1
:101460006C6C696D65746572206177617900756E69
:1014700074696C20746865206E6F7A7A6C65206977
:101480007300526F746174652074686520627574AE
:10149000746F6E00342F323100434F4E54494E5515
:1014A0004500434F4E54494E55450047312046258F
:1014B00069205A3000473120462569205825692087
:1014C00059256900473120462569205A3500667242
:1014D0006F6D20746865206275696C64706C6174EE
:1014E000652E0069732061206D696C6C696D65748F
:1014F0006572206177617900736372657720746922
:101500006C6C20746865206E6F7A7A6C6500547517
:10151000726E206C656674206275696C64706C61B3
:10152000746500352F323100434F4E54494E5545B6
:101530000066726F6D20746865206275696C6470F6
:101540006C6174652E0069732061206D696C6C6933
:101550006D65746572206177617900736372657778
:101560002074696C6C20746865206E6F7A7A6C6583
:10157000005475726E207269676874206275696CB8
:1015800064706C61746500362F323100434F4E54E5
:10159000494E554500473120462569205A300047BD
:1015A0003120462569205825692059256900473191
:1015B00020462569205A3500746865206275696C7B
:1015C00064706C617465206C6576656C2E0070616A
:1015D00070657220746F2066696E652D74756E6516
:1015E000006E6F7720757365206120736865657480
:1015F000206F66005265706561742074686973209D
:10160000737465702C2062757400372F323100437B
:101610004F4E54494E554500626974207265736996
:101620007374616E63652E00756E74696C20796FDA
:1016300075206665656C2061006275696C64706C0C
:1016400061746520616E64206E6F7A7A6C650053F8
:101650006C696465206120706170657220626574D8
:101660007765656E00382F323100434F4E54494E36
:10167000554500434F4E54494E554500746865200A
:101680006C65667420636F726E65722E2E2E00522A
:101690006570656174207468697320666F720039C3
:1016A0002F323100434F4E54494E55450047323892
:1016B000205A300074686520726967687420636F0F
:1016C000726E65722E2E2E005265706561742074E4
:1016D00068697320666F720031302F323100434FDA
:1016E0004E54494E554500444F4E45004D38340048
:1016F0004731204631323030302058313130205996
:10170000313000746F20696E73657274206D61747E
:10171000657269616C2E00746865206E657874204E
:101720007374657020697300746865206275696CF4
:1017300064706C617465004E6F772074686174200A
:101740007765206C6576656C65640031312F3231C8
:1017500000434F4E54494E554500556C74696D61B8
:101760006B6572322E00696E7365727420696E202B
:1017700074686973006D6174657269616C20796F5A
:10178000752077696C6C004E6578742C2073656CDD
:10179000656374207468650031322F323100524520
:1017A0004144590053656C65637420746865206D0D
:1017B0006174657269616C00206173206D6174658C
:1017C0007269616C2C0031332F3231004D41544528
:1017D0005249414C006973207468697320726967CB
:1017E00068743F00596F7520686176652063686F83
:1017F00073656E0031342F3231004E4F005945531E
:10180000006974206973207573696E672E006F66B6
:10181000206D6174657269616C006B6E6F77732007
:1018200077686174206B696E64004E6F7720796F02
:10183000757220556C74696D616B6572320031355B
:101840002F323100434F4E54494E5545006D61745F
:10185000657269616C206C6F6164696E670070729B
:10186000696E74686561642068656174696E67207B
:10187000666F7200506C6561736520776169742CC6
:101880000031362F32310061626F766520746865F1
:10189000206172726F772E00796F757220556C74AB
:1018A000696D616B6572322C0066726F6D207468B1
:1018B000652072656172206F6600496E736572748F
:1018C000206E6577206D6174657269616C003137D7
:1018D0002F323100434F4E54494E5545004C6F61F5
:1018E00064696E67206D6174657269616C2E2E2E5D
:1018F0000031382F32310066726F6D206E6F7A7A48
:101900006C652E2E2E006D6174657269616C2065A8
:1019100078697473005075736820627574746F6EA3
:10192000207768656E0031392F323100434F4E54B5
:10193000494E5545006D616B652061203344205050
:1019400072696E74210049276D2072656164792087
:101950006C657427730032302F32310041524520BC
:10196000594F552052454144593F005265616469C1
:101970006E6720636172642E2E2E0032312F323159
:1019800000746F207072696E742069742100616E3A
:101990006420707265737320746865206275747456
:1019A0006F6E006F6E207468652053442D63617202
:1019B000640053656C6563742061207072696E7495
:1019C0002066696C650032312F3231004C45542756
:1019D00053205052494E5400796F757220556C74E3
:1019E000696D616B6572322E2E2E007468617420F1
:1019F00063616D65207769746800506C656173651B
:101A000020696E736572742053442D6361726400A3
:101A100032312F32310052455455524E0041445616
:101A2000414E434544004255494C442D7C504C4165
:101A30005445003F3F3F00466163746F72792072E6
:101A4000657365740052756E74696D652073746199
:101A500074730056657273696F6E004D6F74696FB1
:101A60006E2073657474696E6773005365742066C5
:101A7000616E207370656564004D6F7665206D61E1
:101A800074657269616C00496E73657274206D6172
:101A900074657269616C0052616973652062756971
:101AA0006C64706C617465004C6F77657220627550
:101AB000696C64706C61746500486F6D6520686561
:101AC000616400486561747570206275696C64704A
:101AD0006C61746500486561747570206E6F7A7A08
:101AE0006C65004C45442073657474696E677300BF
:101AF0003C2052455455524E0056657273696F6EC4
:101B0000204533447636312D5248420025004300AB
:101B1000432F004300432F00250047323820583020
:101B200020593000250046616E20737065656400A1
:101B300047312046256920582569205925690047E5
:101B400032382058205900473120462569205A3420
:101B50003000473238205A004D38340047323820A0
:101B60005A004D3834004732382058205900473247
:101B700038205A00414456414E43454400430043F7
:101B80002F00436C69636B20746F207265747572EB
:101B90006E004E6F7A7A6C652074656D7065726147
:101BA000747572653A004300432F00436C69636BA0
:101BB00020746F2072657475726E00526F74617458
:101BC0006520746F2065787472756465004E6F7A55
:101BD0007A6C652074656D70657261747572653AB2
:101BE000004300432F00436C69636B20746F2072C5
:101BF000657475726E004275696C64706C617465B1
:101C00002074656D702E3A0056657273696F6E2090
:101C10004533447636312D524842004E6F762020AF
:101C20003620323032312031353A32313A323400D6
:101C300052455455524E006D00204D61743A003AA1
:101C4000005072696E74696E673A003A004D6163C4
:101C500068696E65206F6E20666F723A0052455457
:101C600055524E00746F2064656661756C743F0058
:101C700052657365742065766572797468696E67FC
:101C8000004E4F00594553003F3F3F00437572726D
:101C9000656E7420450043757272656E74205A003B
:101CA00043757272656E7420582F59004D6178200B
:101CB0007370656564205A004D61782073706565A6
:101CC000642059004D617820737065656420580068
:101CD000582F59204A65726B00416363656C6572C9
:101CE0006174696F6E003C2052455455524E006D30
:101CF00041006D41006D41006D6D2F736563006D96
:101D00006D2F736563006D6D2F736563006D6D2FAF
:101D1000736563006D6D2F7365635E32006D410006
:101D200043757272656E742045006D410043757293
:101D300072656E74205A006D410043757272656E53
:101D40007420582F59006D6D2F736563004D6178B5
:101D5000207370656564205A006D6D2F7365630094
:101D60004D61782073706565642059006D6D2F7327
:101D70006563004D61782073706565642058006D5F
:101D80006D2F73656300582F59204A65726B0030C0
:101D9000306D6D2F7365635E3200416363656C6502
:101DA000726174696F6E004D4F54494F4E003F3F52
:101DB0003F0020476C6F77207768656E20646F6EF8
:101DC0006500204F6E207768696C65207072696EBF
:101DD00074696E670020416C77617973204F666685
:101DE0000020416C77617973204F6E004272696701
:101DF00068746E657373003C2052455455524E0012
:101E0000250025004272696768746E657373004C23
:101E1000454400473238205830205930004731209F
:101E20004625692058256920592569004732382000
:101E300058302059300052455455524E00534554A5
:101E400054494E4753004348414E474500666F7220
:101E5000206D6174657269616C2072656D6F766169
:101E60006C0048656174696E67207072696E746891
:101E700065616400526576657273696E67206D6195
:101E800074657269616C0052656D6F7665206D6175
:101E900074657269616C0043414E43454C00524584
:101EA00041445900250046616E3A2000430043003A
:101EB0002500466C6F773A006D6D004D41544552D8
:101EC00049414C006D6174657269616C20696E7383
:101ED000657274696F6E00436F6F6C696E67207016
:101EE00072696E746865616420666F72004865612E
:101EF00074696E67207072696E74686561642066CB
:101F00006F720061626F766520746865206172721D
:101F10006F772E00796F7572206D616368696E65E9
:101F20002C0066726F6D20746865206261636B734C
:101F3000696465206F6600496E73657274206E6512
:101F400077206D6174657269616C0043414E434551
:101F50004C00524541445900466F72776172646982
:101F60006E67206D6174657269616C00636F6D6589
:101F700073206F757420746865206E6F7A7A6C6553
:101F800000576169742074696C6C206D61746572AE
:101F900069616C0043414E43454C005245414459F0
:101FA00000696E204D4154455249414C2E545854BD
:101FB00000746F207468652053442063617264006C
:101FC0005361766564206D6174657269616C73003C
:101FD0004F4B000A006469616D657465723D000ACB
:101FE00000666C6F773D000A0066616E5F73706516
:101FF00065643D000A006265645F74656D706572BA
:1020000061747572653D000A003D0072657472610D
:102010006374696F6E5F73706565645F000A003D8D
:102020000072657472616374696F6E5F6C656E6770
:1020300074685F000A003D0074656D7065726174BC
:102040007572655F000A0074656D70657261747504
:1020500072653D000A006E616D653D005B6D6174E7
:10206000657269616C5D0A0052656164696E672022
:10207000636172642E2E2E00506C65617365206959
:102080006E736572742063617264004E6F205344F6
:102090002D43415244210066726F6D2074686520A3
:1020A00053442063617264006D6174657269616C90
:1020B000206C6F6164004572726F72206475726982
:1020C0006E670066726F6D207468652053442063EC
:1020D000617264004C6F61646564206D6174657247
:1020E00069616C73004F4B00686173496E76616C77
:1020F000696452657472616374696F6E537065656B
:102100006420666F756E642070726F626C656D001E
:1021100072657472616374696F6E5F737065656414
:102120005F00686173496E76616C696452657472B0
:10213000616374696F6E4C656E67746820666F7555
:102140006E642070726F626C656D0072657472618E
:102150006374696F6E5F6C656E6774685F00686159
:1021600073496E76616C69644E6F7A7A6C655465FA
:102170006D706572617475726520666F756E64202E
:1021800070726F626C656D0074656D7065726174FC
:102190007572655F00686173496E76616C6964444D
:1021A00069616D6574657220666F756E642070720A
:1021B0006F626C656D006469616D6574657200685D
:1021C0006173496E76616C69644D617465726961B1
:1021D0006C466C6F7720666F756E642070726F62EC
:1021E0006C656D00666C6F7700686173496E76612F
:1021F0006C696446616E537065656420666F756EC8
:10220000642070726F626C656D0066616E5F7370E2
:1022100065656400686173496E76616C69644265E6
:102220006454656D706572617475726520666F7552
:102230006E642070726F626C656D006265645F74BD
:10224000656D706572617475726500686173496E61
:1022500076616C69644E6F7A7A6C6554656D7065F1
:1022600072617475726520666F756E642070726F2E
:10227000626C656D004572726F723A0074656D70C4
:102280006572617475726500416464696E67206D82
:102290006174657269616C20006E616D65005B6DD3
:1022A0006174657269616C5D00537461727420724F
:1022B000656164206D6174657269616C7300666F3D
:1022C000756E64206F6E20636172642E004E6F2005
:1022D0006D6174657269616C2066696C6500526538
:1022E0006164696E6720636172642E2E2E00506CEB
:1022F0006561736520696E736572742063617264D1
:10230000004E6F2053442D434152442100457870C4
:102310006F727420746F20534400496D706F727433
:102320002066726F6D20534400437573746F6D693E
:102330007A65003C2052455455524E0025004661B6
:102340006E3A2000430043002500466C6F773A0048
:102350006D6D004C6F61647320616C6C206D6174F5
:10236000657269616C7300536176657320616C6C92
:10237000206D6174657269616C73004D6F6469668C
:1023800079207468652073657474696E6773004D95
:102390004154455249414C0053656C656374656412
:1023A000206D6174657269616C3A004F4B003F3F6C
:1023B0003F0053746F72652061732070726573659E
:1023C000740052657472616374696F6E00466C6F5D
:1023D0007720250046616E004469616D6574657201
:1023E00000486561746564206275696C64706C6135
:1023F00074650054656D7065726174757265003C3A
:102400002052455455524E00250025006D6D004365
:102410000043200043200025004D6174657269610E
:102420006C20666C6F7700250046616E20737065C6
:102430006564006D6D004D6174657269616C204466
:1024400069616D657465720043004275696C647002
:102450006C6174652054656D702E004D4154455279
:1024600049414C003C2052455455524E0054656D34
:1024700070657261747572653A20004300430054C0
:10248000656D7065726174757265004D4154455299
:1024900049414C003C2052455455524E00526574FF
:1024A00072616374696F6E3A20006D6D2F73006DF9
:1024B0006D20004D4154455249414C0052657472A3
:1024C000616374206C656E677468003F3F3F005223
:1024D000657472616374207370656564003C20529A
:1024E000455455524E006D6D2F736563006D6D0040
:1024F0006D6D2F7365630052657472616374207330
:1025000070656564006D6D0052657472616374205E
:102510006C656E6774680052455452414354494F8C
:102520004E003C2052455455524E004E6577207067
:1025300072657365740050524553455453005450AE
:102540004C41005050005450552039354100435003
:10255000452B004E796C6F6E005043004350450090
:1025600041425300504C41006C63645F6D6174657F
:102570007269616C5F72657365745F6465666175CD
:102580006C7473006563686F3A004D3834004732ED
:102590003800473238205A3000473238205830202F
:1025A00059300047312046256920453000473932EF
:1025B00020452569004D343031003C204241434BD9
:1025C000003C2052455455524E004E6F20696E66B5
:1025D0006F20617661696C61626C65004E6F7A7A1A
:1025E0006C653A20006D006D004D61746572696123
:1025F0006C3A200054696D653A20003B4D545950A7
:10260000453A003B4E4F5A5A4C455F4449414D456F
:102610005445523A003B4D4154455249414C3A00D1
:102620003B54494D453A00466F6C64657200436106
:102630006E6E6F7420656E74657220737562646966
:10264000723A20005344204341524400473120460F
:10265000313230303020583520593130004732384F
:10266000003B464C41564F523A556C746947436F94
:102670006465003B464C41564F523A556C7469476D
:10268000436F6465004E6F2066696C657320666FEA
:10269000756E6421004F4B004F4B005265616469B9
:1026A0006E6720636172642E2E2E00506C6561731C
:1026B0006520696E736572742063617264004E6F89
:1026C0002053442D43415244210050726570617281
:1026D000696E6720746F207072696E743A00486585
:1026E0006174696E672075702E2E2E0041424F5224
:1026F000540054554E450054696D65206C656674F0
:102700000054696D65206C65667420756E6B6E6F24
:10271000776E004300430048656174696E6720620C
:1027200075696C64706C61746500430043004865B2
:102730006174696E67005072696E74696E673A0001
:1027400050415553450054554E450054554E450093
:102750004348414E47457C4D4154455249414C0008
:10276000524553554D457C5052494E5400756C743A
:10277000696D616B65722E636F6D2F455230380045
:10278000476F20746F3A0072656164696E67205309
:10279000442D6361726421004572726F7220776804
:1027A000696C650052455455524E20544F204D419E
:1027B000494E006F66207072696E74696E672061A1
:1027C000726561005472696564207072696E746923
:1027D0006E67206F7574004552524F523A00524551
:1027E0005455524E20544F204D41494E0066726F51
:1027F0006D2074686520736C696365722E00736563
:102800007474696E6720776974682073657474697D
:102810006E67006F76657272696465206D616368CA
:10282000696E6500546869732066696C6520776914
:102830006C6C0043414E43454C00434F4E54494E4F
:102840005545002573207673202573006D617465EE
:102850007269616C2E00666F722061206469666621
:102860006572656E7400546869732066696C6520D2
:10287000697320637265617465640043414E43452A
:102880004C00434F4E54494E55450041626F72749F
:1028900020746865207072696E743F004E4F005955
:1028A00045530043004320005072696E74657220E6
:1028B000636F6F6C696E6720646F776E004241438F
:1028C0004B20544F204D454E550074686520707262
:1028D000696E742E00596F752063616E2072656D8C
:1028E0006F7665005072696E742066696E697368F0
:1028F0006564004241434B20544F204D454E5500E6
:102900004C4544204272696768746E657373005267
:10291000657472616374696F6E004D61746572698C
:10292000616C20666C6F770046616E207370656520
:1029300064004275696C64706C6174652074656DC7
:10294000702E0054656D7065726174757265005308
:10295000706565640041626F7274003C205245549A
:1029600055524E002500250025004300430043003A
:10297000430025004300432F00436C69636B2074C0
:102980006F2072657475726E004E6F7A7A6C652076
:1029900074656D70657261747572653A00250042E8
:1029A00072696768746E6573730025004D617465A4
:1029B0007269616C20666C6F7700250046616E203D
:1029C00073706565640025005072696E74207370C1
:1029D0006565640054554E450052657472616374B8
:1029E000206C656E677468003F3F3F0052657472EB
:1029F000616374207370656564003C2052455455D2
:102A0000524E006D6D2F736563006D6D006D6D2FFF
:102A100073656300526574726163742073706565D9
:102A200064006D6D0052657472616374206C656E34
:102A30006774680052455452414354494F4E004D0B
:102A4000363031205835205935205A2569204C25FB
:102A5000690020746F6F206C6F6E672065787472E8
:102A60007573696F6E2070726576656E746564004B
:102A700020636F6C6420657874727573696F6E2063
:102A800070726576656E746564006563686F3A00A0
:102A900024F4D43050C38E20C2A24017828B701110
:102AA000127A910D816CD90AA861E108C7586607AE
:102AB000615143061E4B5D05C145A7041A4111042F
:102AC000093D9803713931034036DB0265339102C9
:102AD000D4305402802E1D02632CEE01752AC501EC
:102AE000B028A001102781018F2564012B244B0100
:102AF000E0223401AC211F018D200D01801FFC005C
:102B0000841EED00971DDF00B81CD200E61BC60036
:102B1000201BBC00641AB200B219A8000A19A00058
:102B20006A189900D117910040178B00B5168400E0
:102B300031167E00B31579003A157300C7146F0083
:102B400058146A00EE1366008813630025135E00B4
:102B5000C7125B006C12570015125400C1115100CE
:102B600070114F0021114B00D61049008D10470005
:102B70004610440002104200C00F4000800F3E008B
:102B8000420F3C00060F3B00CB0E3800930E37007F
:102B90005C0E3500270E3400F30D3200C10D3100FC
:102BA000900D3000600D2E00320D2D00050D2C0013
:102BB000D90C2B00AE0C2900850C29005C0C2700D9
:102BC000350C27000E0C2600E80B2400C40B240053
:102BD000A00B23007D0B23005A0B2100390B210091
:102BE000180B2000F80A1F00D90A1E00BB0A1E009D
:102BF0009D0A1D00800A1D00630A1C00470A1B0075
:102C00002C0A1B00110A1A00F7091A00DD09190025
:102C1000C4091900AB091900920917007B091800B3
:102C2000630917004C091600360916002009160022
:102C30000A091500F5081500E0081400CC08140076
:102C4000B8081400A4081400900813007D081200AE
:102C50006B081300580812004608120034081100CF
:102C6000230811001208110001081100F0071000DC
:102C7000E0071000D0071000C0071000B0070F00D9
:102C8000A107100091070E0083070F0074070F00C3
:102C900065070E0057070E0049070E003B070D00A1
:102CA0002E070E0020070D0013070D0006070D006C
:102CB000F9060C00ED060D00E0060C00D4060C0031
:102CC000C8060C00BC060C00B0060C00A4060B00E5
:102CD00099060C008D060B0082060B0077060B0090
:102CE0006C060B0061060A0057060B004C060A0032
:102CF00042060A0038060A002E060A0024060A00C8
:102D00001A060A001006090007060A00FD05090058
:102D1000F4050900EB050900E2050900D9050900E1
:102D2000D0050900C7050900BE050900B505080062
:102D3000AD050800A50509009C05080094050800DC
:102D40008C050800840508007C050800740508004F
:102D50006C050700650508005D05070056050800BD
:102D60004E05070047050700400508003805070025
:102D7000310507002A050700230507001C0506008A
:102D8000160507000F0507000805060002050700E5
:102D9000FB040600F5040700EE040600E804060044
:102DA000E2040700DB040600D5040600CF04060099
:102DB000C9040600C3040600BD040600B7040600EB
:102DC000B1040500AC040600A6040600A00405003A
:102DD0009B04060095040500900406008A04050083
:102DE00085040500800406007A04050075040500CA
:102DF000700405006B04050066040500610405000D
:102E00005C04050057040500520405004D0405004C
:102E100048040500430405003E0404003A0405008C
:102E200035040500300404002C04050027040400C8
:102E3000230405001E0404001A04040016040500FF
:102E4000110404000D040400090405000404040036
:102E500000040400FC030400F8030400F40304006D
:102E6000F0030400EC030400E8030400E40304009E
:102E7000E0030400DC030400D8030400D4030400CE
:102E8000D0030400CC030400C8030300C5030300FF
:102E900024F404D9201BC40C5C0E9804C4095F02FE
:102EA00065077101F405F900FB04B30048048700CD
:102EB000C10369005803550003034500BE023A00F0
:102EC0008402310053022A00290225000402200056
:102ED000E4011C00C8011900AF011700980114009B
:102EE00084011300710110006101100051010E00F6
:102EF00043010D0036010B002B010B0020010B00DC
:102F0000150109000C01090003010800FB0008007D
:102F1000F3000800EB000700E4000600DE000600F6
:102F2000D8000600D2000600CC000500C70005004E
:102F3000C2000500BD000400B9000400B500040093
:102F4000B1000400AD000400A9000400A5000300C6
:102F5000A20003009F0004009B00030098000300F0
:102F60009500020093000300900003008D00020012
:102F70008B0003008800020086000200840003002A
:102F8000810002007F0002007D0002007B00020041
:102F90007900020077000100760002007400020050
:102FA00072000100710002006F0002006D0001005C
:102FB0006C0002006A000100690002006700010065
:102FC000660001006500010064000200620001006B
:102FD00061000100600001005F0002005D0001006F
:102FE0005C0001005B0001005A0001005900010073
:102FF0005800010057000100560001005500010073
:103000005400010053000000530001005200010071
:1030100051000100500001004F0001004E0000006F
:103020004E0001004D0001004C0001004B0000006B
:103030004B0001004A000100490001004800000067
:103040004800010047000100460000004600010062
:10305000450000004500010044000100430000005D
:103060004300010042000000420001004100000056
:1030700041000100400001003F0000003F0001004E
:103080003E0000003E0001003D0000003D00010048
:103090003C0000003C0000003C0001003B00000040
:1030A0003B0001003A0000003A0001003900000036
:1030B000390001003800000038000000380001002D
:1030C0003700000037000100360000003600000025
:1030D0003600010035000000350000003500010019
:1030E0003400000034000000340001003300000010
:1030F0003300000033000100320000003200000005
:1031000032000100310000003100000031000100F8
:103110003000000030000000300001002F000000EF
:103120002F0000002F0000002F0001002E000000E3
:103130002E0000002E0001002D0000002D000000D8
:103140002D0000002D0001002C0000002C000000CC
:103150002C0000002C0001002B0000002B000000C0
:103160002B0000002B0001002A0000002A000000B4
:103170002A0000002A0001002900000029000000A8
:10318000290000002900000029000100280000009B
:10319000280000002800000028000000280001008E
:1031A0002700000027000000270000002700000083
:1031B0002700010026000000260000002600000075
:1031C0002600000026000100250000002500000068
:1031D000250000002500000025000000250001005A
:1031E000240000002400000024000000240000004F
:1031F0002400010023000000230000002300000041
:103200002300000023000000230000002300010031
:103210002200000022000000220000002200000026
:103220002200000022000100210000002100000017
:10323000210000002100000021000000210000000A
:1032400021000100200000002000000020000000FC
:1032500020000000200000002000000020000000EE
:10326000200001001F0000001F0000001F000000E0
:103270001F0000001F0000001F0000001F000100D1
:103280001E0000001E0000001E0000001E000000C6
:103290000000000018070100A807140030082800EB
:1032A000B8083C0038095000C0096400480A78009A
:1032B000C80A8C00480BA000C80BB400480CC8001A
:1032C000C80CDC00400DF000C00D0401380E1801E0
:1032D000B00E2C01280F4001A00F540118106801F6
:1032E00088107C01001190013013F4014815580238
:1032F0004017BC0228192003F01A8403A81CE80315
:10330000401E4C043A2045787472756465722073CF
:1033100077697463686564206F66662E204D415836
:1033200054454D5020747269676765726564202149
:10333000003A2045787472756465722073776974F9
:1033400063686564206F66662E204D494E54454D76
:103350005020747269676765726564202100546546
:103360006D706572617475726520686561746564FD
:1033700020626564207377697463686564206F6692
:10338000662E204D415854454D5020747269676730
:1033900065726564202121000000210024002700BF
:1033A0002A002D0030003300010100000401070154
:1033B0000A0100002200250028002B002E00310009
:1033C000340002010000050108010B010505050597
:1033D000070508080808020202020A0A080804048D
:1033E00004040101010101010101030303030303BB
:1033F0000303040707070C0C0C0C0C0C0C0C02024A
:10340000020206060606060606060B0B0B0B0B0B46
:103410000B0B0102102020080810204010204080D3
:103420000201020108040201010204081020408088
:103430008040201008040201800402018040201016
:10344000080402010804020101020408102040805F
:10345000010204081020408000000A0B02090C0D34
:103460000E08070304010000000000000000000037
:10347000000000000000000000000000000000004C
:103480000000000012111000000000000000000009
:103490000000000000000000000000000000435099
:1034A000450041425300504C4100496E76616C69C1
:1034B00064206D6174657269616C207365747469F0
:1034C0006E677320666F756E642C20726573657409
:1034D00074696E6720746F2064656661756C7473BF
:1034E000006563686F3A002020506C616E6E6572F3
:1034F00042756666657242797465733A20002046AB
:10350000726565204D656D6F72793A20004E6F7659
:10351000202036203230323100436F6D70696C6587
:10352000643A200056657273696F6E2045334476A5
:1035300036312D52484200207C20417574686F72EC
:103540003A20004E6F762020362032303231203142
:10355000353A32313A323200204C61737420557062
:1035600064617465643A2000312E302E30004D6164
:10357000726C696E200020536F66747761726520EB
:10358000526573657400205761746368646F6720C7
:103590005265736574002042726F776E206F757488
:1035A000205265736574002045787465726E616C95
:1035B00020526573657400506F77657255700073A3
:1035C00074617274004D383420582059205A2045B7
:1035D000006563686F3A00256920686F7572732013
:1035E0002569206D696E7574657300446F6E652082
:1035F0007072696E74696E672066696C65005072DE
:10360000696E7465722073746F7070656420647580
:103610006520746F206572726F72732E2046697810
:1036200020746865206572726F7220616E64207507
:103630007365204D39393920746F20726573746158
:1036400072742E202854656D706572617475726590
:103650002069732072657365742E20536574206928
:103660007420616674657220726573746172746926
:103670006E6729006F6B004E6F204C696E65204E9F
:10368000756D626572207769746820636865636B25
:1036900073756D2C204C617374204C696E653A20F3
:1036A000004E6F20436865636B73756D2077697496
:1036B00068206C696E65206E756D6265722C204C99
:1036C000617374204C696E653A2000636865636BB2
:1036D00073756D206D69736D617463682C204C6126
:1036E0007374204C696E653A20004C696E65204EFB
:1036F000756D626572206973206E6F74204C617302
:1037000074204C696E65204E756D6265722B312C8C
:10371000204C617374204C696E653A2000457272CA
:103720006F723A004D313130006572726F722077DE
:10373000726974696E6720746F2066696C65002019
:103740005A3A0020593A0020583A00656E64737462
:103750006F7073206869743A20006563686F3A007F
:10376000446F6E6520736176696E672066696C656B
:103770002E006F6B004D323900801506060606FEDE
:10378000FEFEFEFC00000000000000FCFEFEFEFC51
:103790000000000EFEFEFEFE0000E0FCFEFEFCE06F
:1037A000E0000000CECECE000000C0C0C0C0C0C04F
:1037B0008000000000000080C0C080000000000009
:1037C000008080C0C0C0C0C0C0C0808000000000B9
:1037D00006FEFEFEFE0000000080C0C0C00000002B
:1037E0000000008080C0C0C080808000000000C059
:1037F000C0C0C00080C0C0C0C08000000000007F0A
:10380000FFFFFFFF80000000000080FFFFFFFFFFC1
:1038100000000000FFFFFFFF000000FFFFFFFF00B0
:1038200000000000FFFFFF00000081F1FFFF3F0FDD
:103830003FFFFCF0F0FCFF3F0F3FFFFEF880000071
:1038400000C1E1F1F17131010183FFFFFFFC0000D4
:1038500000FFFFFFFF000C3EFFFFF7C30100000069
:10386000FCFEFF8703113131333F3F3F1E00000153
:10387000FFFFFFFF0703010101010000000000003E
:10388000010307070F0F0F0F0F0F0F0707070F0F8A
:1038900006000000070F0F07000000070F0F0700CA
:1038A000000000000F0F0F0000060F0F07010000BF
:1038B0000001070F0F070100000001070F0F0600AE
:1038C0000003070F0F0E0E060703070F0F07000078
:1038D00000070F0F0700000000030F0F0F06000086
:1038E000000307070F0E0E0E0E0E0E06000000005E
:1038F0000F0F0F0F0000000000000043616E6E6F9D
:1039000074206F70656E20737562646972005772FF
:103910006974696E6720746F2066696C653A20006F
:103920002E006F70656E206661696C65642C2046A0
:10393000696C653A20002E006F70656E20666169C3
:103940006C65642C2046696C653A200046696C659C
:103950002073656C6563746564002053697A653A09
:10396000200046696C65206F70656E65643A2000C2
:103970002E006F70656E206661696C65642C204650
:10398000696C653A200053442063617264206F6B58
:10399000006F70656E526F6F74206661696C65644C
:1039A00000766F6C756D652E696E6974206661694D
:1039B0006C6564004572726F723A00534420696E00
:1039C0006974206661696C006563686F3A004D3206
:1039D00034004D3233202573006175746F25692ED4
:1039E00067004572726F723A0000E5D9C7D9112499
:1039F0001FBECFEFD1E2DEBFCDBF00E00CBF13E0B2
:103A0000A0E0B2E0ECEAF7EE01E00BBF02C00790E5
:103A10000D92AC32B107D9F729E1ACE2B3E001C0B5
:103A20001D92AA3DB207E1F71CE1C6EFDCE100E020
:103A300006C021970109802FFE010E941AF3C53F9D
:103A4000D10780E00807A9F70E9477DA0C94C4F345
:103A50000C940000E7E5F6E08FEF8083858F82AF5E
:103A60008093AE068093CB068093E80610920607FB
:103A7000809305070895089580E79BE79093350D9F
:103A80008093340D08951092610C1092600C109286
:103A9000630C1092620C109267070895EF92FF92E8
:103AA0000F931F93CF93DF93C82FD0E0E62FE695B7
:103AB000E695E69530E8E39FF0011124EC0FFD1F39
:103AC000E352FF4E922F96959695969530E8939FE8
:103AD000D0011124AC0FBD1FA352BF4E67700FEF72
:103AE00010E0E80101C0CC0F6A95EAF730E02095BC
:103AF000309527703327B80102C0759567952A95D0
:103B0000E2F75C2F8F01982FEA17FB0751F46C2323
:103B1000481778F19191DF011197962B9C938F5F55
:103B2000F7CF491760F0E80129918E017E01D1E0BD
:103B3000ED1AF108252BE70128839F5FF2CF9F0143
:103B400020583F4F5FEFF9012A173B0749F0982FA4
:103B5000491718F051939F5FFBCF20583F4FF3CF89
:103B6000481738F09191DF011197962B9C938F5F46
:103B7000F7CFDF91CF911F910F91FF90EF900895B4
:103B8000CF92DF92EF92FF920F931F93CF93DF9329
:103B9000C82FD0E0E62FE695E695E69500E8E09F91
:103BA000F0011124EC0FFD1FE352FF4E922F96956A
:103BB0009695969510E8919FD0011124AC0FBD1FEA
:103BC000A352BF4E6770CFEFD0E08E0102C0000F4E
:103BD000111F6A95E2F7B80130E020953095277003
:103BE00033276E0102C0D594C7942A95E2F7EA17ED
:103BF000FB0789F08F01982F60954917B8F0E8010D
:103C000029918E017E01D1E0ED1AF1082623E7010A
:103C100028839F5FF2CF6C2160954817F8F091914F
:103C2000DF01119796239C938F5FF7CF9F01205858
:103C30003F4FF9012A173B0731F0982F4917B8F386
:103C400011929F5FFBCF6C2D6095481738F09191D2
:103C5000DF01119796239C938F5FF7CFDF91CF9170
:103C60001F910F91FF90EF90DF90CF9008950F93E9
:103C70001F93CF93DF93C82FD0E0E62FE695E6950C
:103C8000E69500E8E09FF0011124EC0FFD1FE352E0
:103C9000FF4E922F96959695969510E8919FD0019C
:103CA0001124AC0FBD1FA352BF4EEA17FB0709F446
:103CB00043C06770CFEFD0E08E0102C0000F111F2C
:103CC0006A95E2F7B801EF01382F431748F05881A1
:103CD00095E530FD9AEA9623952B99933F5FF5CFB2
:103CE000BF0160587F4F6A177B0761F0FB01982F77
:103CF0004917B8F3308155E590FD5AEA352B3193D9
:103D00009F5FF6CF30E02095309527703327EFEF97
:103D1000F0E0DF0102C0B595A7952A95E2F79D0175
:103D2000FB01481748F0508195E580FD9AEA9223FF
:103D3000952B91938F5FF5CFDF91CF911F910F91CD
:103D40000895282F30E0E62FE695E695E69550E8B1
:103D5000E59FF0011124E20FF31FE352FF4E942F71
:103D6000969596959695A0E89A9FC0011124820F8A
:103D7000931F83529F4E67702FEF30E0D90102C02E
:103D8000AA0FBB1F6A95E2F750E040955095477027
:103D9000552702C0359527954A95E2F74081E817E7
:103DA000F90721F42A23242B208308954A2B4083EA
:103DB0004FEFE058FF4FE817F90711F04083F9CFB4
:103DC0008081282BF1CF942F977021E001C0220F22
:103DD0009A95EAF746954695469590E8499FF001F1
:103DE0001124E80FF11DE352FF4E681738F091914E
:103DF000DF011197922B9C938F5FF7CF0895EF927D
:103E0000FF920F931F93CF93DF93C82F062FD42FCA
:103E1000122FEE24EA94E20EFF24F394F60E4E2DB8
:103E20006F2D0E94A11E4E2D6F2D8D2F0E94A11E61
:103E3000D150CF5F402F6D2F8C2F0E94E31E412F5A
:103E40006D2F8C2FDF91CF911F910F91FF90EF90ED
:103E50000C94E31ECF92DF92EF92FF92CF93DF9309
:103E6000EC01C0904003D0904103E0904203F090F9
:103E70004303A7019601688179818A819B810E9411
:103E800081EB87FF07C0C882D982EA82FB8281E08A
:103E900080935406C0904403D0904503E0904603BD
:103EA000F0904703A70196016C817D818E819F81EF
:103EB0000E9481EB87FF07C0CC82DD82EE82FF8209
:103EC00081E080935406C0904803D0904903E0906D
:103ED0004A03F0904B03A7019601688579858A858E
:103EE0009B850E9481EB87FF07C0C886D986EA863A
:103EF000FB8681E080935406C0900D02D0900E02A4
:103F0000E0900F02F0901002A7019601688179817C
:103F10008A819B810E9486F118163CF4C882D9825E
:103F2000EA82FB8281E080935406C0901102D09017
:103F30001202E0901302F0901402A70196016C8126
:103F40007D818E819F810E9486F118163CF4CC827F
:103F5000DD82EE82FF8281E080935406C0901502DC
:103F6000D0901602E0901702F0901802A701960177
:103F7000688579858A859B850E9486F118163CF4B0
:103F8000C886D986EA86FB8681E080935406DF9155
:103F9000CF91FF90EF90DF90CF9008950F931F93F4
:103FA000CF93DF93EC01CC0FDD1FCC0FDD1FFE01A3
:103FB000E85BF84F25913591459154918E0103525C
:103FC0001B4EFE01E35CF94F608171818281938118
:103FD0000E9426EFF8016083718382839383FE0140
:103FE000E45CF84F85919591A591B491FE01E05C58
:103FF000FC4F80839183A283B383FE01E05DF84F81
:1040000085919591A591B491C35FDD4F8883998384
:10401000AA83BB83DF91CF911F910F9108950895DB
:1040200090E080E00895682F880F770B2091DA10D8
:104030003091DB1040E6429FC001439F900D112458
:104040008652924F0E9481F39C019093480D809379
:10405000470D81E0232B09F480E008950C94E5D509
:104060006DED74E2882351F06CEB74E2813031F035
:104070006FEC74E2823011F06BEC74E28FE197E147
:104080000E94C1EA8FE197E108956FEF73E2882300
:10409000F1F063EF73E28130D1F061EE73E28230D0
:1040A000B1F068ED73E2833091F064ED73E2843037
:1040B00071F06DEC73E2853051F062EC73E28630A2
:1040C00031F062EB73E2873011F06EEA73E28FE158
:1040D00097E10E94C1EA8FE197E10895CF93DF93C2
:1040E000C82F67EF7DE18823B1F06CEE7DE1813070
:1040F00091F061EE7DE1823071F065ED7DE183301C
:1041000051F062EC7DE1843031F062EB7DE185308D
:1041100011F06EEA7DE18FE197E10E94C1EAC250A1
:10412000DD0B20911E072C171D0619F48EE38093DA
:104130001F178FE197E1DF91CF91089566EE7CE143
:10414000882311F169ED7CE18130F1F060ED7CE1D3
:104150008230D1F064EC7CE18330B1F068EB7CE13B
:10416000843091F06CEA7CE1853071F060EA7CE1AA
:10417000863051F066E97CE1873031F06CE87CE113
:10418000883011F068E87CE18FE197E10E94C1EA94
:104190008FE197E1089560EF7AE18823B1F163EE52
:1041A0007AE1813091F165ED7AE1823071F163EC71
:1041B0007AE1833051F169EB7AE1843031F168EAD8
:1041C0007AE1853011F167E97AE18630F1F067E84C
:1041D0007AE18730D1F069E77AE18830B1F06BE6B7
:1041E0007AE1893091F06BE57AE18A3071F063E52C
:1041F0007AE18B3051F065E47AE18C3031F067E39D
:104200007AE18D3011F063E37AE18FE197E10E946A
:10421000C1EA8FE197E108958F929F92AF92BF928A
:10422000CF92DF92EF92FF92F62E70E060E00E9454
:10423000C8E74B015C016F2D70E090E080E00E94C8
:1042400088EBA50194010E940AE76B017C0120E044
:104250003FEF4FE757E40E9481EB87FF17C020E054
:1042600030E0A901C701B6010E9481EB87FD11C0B2
:10427000C701B6010E9499F0CB01FF90EF90DF904B
:10428000CF90BF90AF909F908F9008958FEF9FEF4A
:10429000F4CF90E080E0F1CF8091470D9091480DF0
:1042A00070E060E001960C94C8E74F925F926F92C5
:1042B0007F929F92AF92BF92CF92DF92EF92FF9246
:1042C0000F931F93CF93DF9300D01F92CDB7DEB72C
:1042D00019821A821B821C828BECA82E82E0B82ED7
:1042E0009DEDC92E94E1D92E25E2E22E26E0F22E94
:1042F00010E000E099249394F50181915F010E9400
:104300001320882309F4DBC00E944C212B013C01BF
:10431000F801E45CFC4F6081611102C060913B03D5
:1043200070E090E080E00E9488EBF601208131810E
:10433000428153810E940AE7A30192010E9426EF65
:10434000F7016083718382839383E1E0F0E0EC0FF7
:10435000FD1FE00FF11F90820F5F1F4FF4E0CF0EA3
:10436000D11C84E0E80EF11C0430110529F686E426
:104370000E941320882399F00E944C216B017C013C
:1043800020E030E0A9010E9486F1181644F4C092A2
:104390001D02D0921E02E0921F02F0922002809134
:1043A0003A03882309F477C08981811174C08A8116
:1043B000811171C08B8181116EC08C81882309F4B9
:1043C0006AC04090E9145090EA146090EB14709029
:1043D000EC14A30192016091310670913206809134
:1043E0003306909134060E9425EF6B017C012DEC81
:1043F0003CEC4CEC5DEB0E9481EB87FF6BC0809145
:104400005106811148C02091090230910A02409161
:104410000B0250910C0260912D0670912E06809136
:104420002F06909130060E9426EF60932D06709320
:104430002E0680932F0690933006C701B601905840
:104440002091310230913202409133025091340276
:104450000E9425EF9B01AC01C301B2010E9425EF30
:104460006093E9147093EA148093EB149093EC1426
:1044700080912D0290912E02A0912F02B0913002D6
:1044800080931D0290931E02A0931F02B0932002FE
:1044900081E0809351060F900F900F900F90DF9165
:1044A000CF911F910F91FF90EF90DF90CF90BF9031
:1044B000AF909F907F906F905F904F900895F6011E
:1044C00080819181A281B381F70180839183A2834E
:1044D000B38342CF2DEC3CEC4CEC5DE3C701B6015D
:1044E0000E9486F11816BCF680915106882399F235
:1044F000A7019601609131027091320280913302DE
:10450000909134020E9425EF2091360330913703B9
:1045100040913803509139030E9426EFA301920184
:104520000E9426EF6093E9147093EA148093EB14D1
:104530009093EC148091050290910602A0910702DD
:10454000B091080280931D0290931E02A0931F0257
:10455000B0932002109251069ECF0E94552189E40B
:104560000E9413208823D1F00E944C2160934C03B9
:1045700070934D0380934E0390934F038AE40E94FF
:1045800013208823A1F00E944C2160935003709364
:1045900051038093520390935303089510924C0358
:1045A00010924D0310924E0310924F03E7CF1092DA
:1045B0005003109251031092520310925303089526
:1045C0000F931F93CF93C82F811112C08091B418FD
:1045D00061EC75E2882311F06AEB75E28FE197E1F7
:1045E0000E94C1EA8FE197E1CF911F910F91089549
:1045F00010921F1707E516E0F80180818C1307C0A1
:10460000B8016E5F7F4F8FE197E10E9495F3035EE3
:104610001F4FF7E005301F0779F780911F178111B1
:10462000E1CF8FEF8C0F0E947AD980911F178111F3
:1046300006C062E177E18FE197E10E9495F38091F6
:104640003A17811110C06EE270E08FE197E10E948D
:1046500081F3892B41F06EE270E08FE197E10E94D7
:10466000B9F3FC0110828C2F66E00E94DBF2FDE1C1
:104670009F9FC00111248C01095A194FF801C08372
:104680006FE177E1875A994F0E9495F380913A172D
:10469000F80181838091B718882309F4A3CF809112
:1046A0001117882309F49ECF1092B7188FEF8083DB
:1046B00010921F1797CF0E942EB7609360037093DC
:1046C00061038093620390936303E091DA10F091A9
:1046D000DB10E75BF24F8081811114C0E8E2FBE060
:1046E0008491882341F09091C00095FFFCCF809386
:1046F000C6003196F5CF8091C00085FFFCCF8AE0DF
:104700008093C6000895CF92DF92EF92FF920F93AD
:104710001F9385E296E00E942A1F0E942EB76093A5
:10472000600370936103809362039093630320910D
:104730002506309126064091270650912806609163
:10474000DD147091DE148091DF149091E0140E94CA
:1047500081EB811149C02091290630912A064091B0
:104760002B0650912C066091E1147091E214809117
:10477000E3149091E4140E9481EB811135C020E094
:1047800030E040E752E460911D0270911E0280917A
:104790001F02909120020E9420F021EFC22E24E1FE
:1047A000D22E7B018C0121E336E04DE256E069E236
:1047B00076E085E296E00E94A9C8E5E2F6E0ADED7C
:1047C000B4E141915191619171914D935D936D93DC
:1047D0007D9386E0E533F807A1F71F910F91FF90D5
:1047E000EF90DF90CF90089560912B0270912C0292
:1047F000072E000C880B990B0E9488EB20911D025C
:1048000030911E0240911F02509120020E940AE73F
:1048100020E030E040E752E40E9420F020E030E069
:1048200048EC52E4B8CF3F924F925F926F927F92E2
:104830008F929F92AF92BF92CF92DF92EF92FF92B0
:104840000F931F93CF93DF9300D01F921F92CDB78A
:10485000DEB71092E9141092EA141092EB14109241
:10486000EC1419821A821B821C82CE0101960E94CE
:104870004BC610923107109254061D82812C912C48
:1048800038E4A32E32ECB32E412C512C40EA642E96
:1048900041E4742E332433948D81811180C0809142
:1048A0000B0790910C07A0910D07B0910E07892B73
:1048B0008A2B8B2B09F46FC01092F1148091310771
:1048C00081111CC04092E5145092E6146092E714E6
:1048D0007092E81491EFC92E94E1D92EE12CF12CBD
:1048E00006E115E429EE34E145EE54E161EE74E1B0
:1048F0008DED94E10E94A9C830923107ED8124E04A
:10490000E29FF0011124E351FB4E2081318142816D
:10491000538160E070E080EA91EC0E9420F06983AE
:104920007A838B839C83CE0101960E944BC6CE0175
:1049300005966C01E12CF12C00EA10E429EE34E13B
:1049400045EE54E161EE74E18DED94E10E94A9C859
:1049500089829A82AB82BC82CE0101960E944BC6AC
:10496000ED8194E0E99FF0011124E351FB4EA80191
:10497000970160817181828193810E940AE77B01A6
:104980008C0129EE34E145EE54E161EE74E18DEDE8
:1049900094E10E94A9C88D818F5F8D837DCF109295
:1049A000F11481E0809331072AE33BE7309353060B
:1049B0002093520690913D17992321F080930F1771
:1049C0001092101781E08093770C8091E9149091F8
:1049D000EA14A091EB14B091EC148093730C9093B3
:1049E000740CA093750CB093760C10923307109250
:1049F000340710923507109236070E942EB7609345
:104A0000360D7093370D8093380D9093390D0F90BC
:104A10000F900F900F900F90DF91CF911F910F91FA
:104A2000FF90EF90DF90CF90BF90AF909F908F90CE
:104A30007F906F905F904F903F9008952F923F929C
:104A40004F925F926F927F928F929F92AF92BF929E
:104A5000CF92DF92EF92FF920F931F93CF93DF934A
:104A60001F92CDB7DEB78BE4282E87E0382EF101F8
:104A700084849584A684B784409047075090480763
:104A80006090490770904A0780E090E0A0EAB2E4A5
:104A900084879587A687B78780E090E0A0EAB1E495
:104AA0008093470790934807A0934907B0934A071C
:104AB0000DED14E1F801148615861686178689EE29
:104AC00094E10E944BC680E090ECA3E2B4E4F801CC
:104AD00084879587A687B7871982CE0101966C01D6
:104AE000E12CF12C00EA12E429EE34E145EE54E128
:104AF00061EE74E1CF010E94A9C8F1018486958618
:104B0000A686B786409247075092480760924907A9
:104B100070924A070F90DF91CF911F910F91FF90F4
:104B2000EF90DF90CF90BF90AF909F908F907F904D
:104B30006F905F904F903F902F90089560E084E6D3
:104B400090E00E94BEEE60E085E690E00E94BEEE3E
:104B500060E086E690E00E94BEEE60E080E094E0D7
:104B60000E94BEEE60E080E098E00E94BEEEF89405
:104B7000EE27FF2709940895EF92FF920F931F935A
:104B8000CF938C017B01C42FF70161917F01F80164
:104B9000808191810E94BEEEF80180819181019611
:104BA00091838083C15081F7CF911F910F91FF9026
:104BB000EF9008950F931F93CF93DF93CDB7DEB798
:104BC00066970FB6F894DEBF0FBECDBF8091FF028F
:104BD00090910003A0910103B091020389839A830D
:104BE000AB83BC8304E610E01A87098744E0BE016A
:104BF0006F5F7F4FCE0109960E94BC2540E162EFB6
:104C000074E1CE0109960E94BC2540E16BE477E097
:104C1000CE0109960E94BC2540E168E777E0CE010D
:104C200009960E94BC2544E063E477E0CE01099632
:104C30000E94BC2544E067E477E0CE0109960E941B
:104C4000BC2544E06FE577E0CE0109960E94BC25C3
:104C500044E063E677E0CE0109960E94BC2544E07B
:104C60006BE577E0CE0109960E94BC2544E06FE336
:104C700077E0CE0109960E94BC2544E06BE377E023
:104C8000CE0109960E94BC2544E067E377E0CE019F
:104C900009960E94BC254CE06DE376E0CE010996B2
:104CA0000E94BC2584EB90E09C878B8786E490E093
:104CB0009E878D87188A1F8680EF90E09A8B898B5C
:104CC0001C8B0B8B1E8A1D8A42E0BE01655F7F4FE5
:104CD000CE0109960E94BC2542E0BE01635F7F4F72
:104CE000CE0109960E94BC2542E0BE01615F7F4F64
:104CF000CE0109960E94BC2542E0BE016F5E7F4F47
:104D0000CE0109960E94BC2542E0BE016D5E7F4F38
:104D1000CE0109960E94BC2542E0BE016B5E7F4F2A
:104D2000CE0109960E94BC2544E063E472E0CE0106
:104D300009960E94BC2544E06DE472E0CE0109961C
:104D40000E94BC2544E06FE372E0CE0109960E9408
:104D5000BC2546E063E572E0CE0109960E94BC25C1
:104D600041E06AE272E0CE0109960E94BC2541E072
:104D70006EE177E0CE0109960E94BC2544E061E334
:104D800072E0CE0109960E94BC2544E06DE272E01B
:104D9000CE0109960E94BC258091030390910403E3
:104DA000A0910503B09106038D839E83AF83B887DE
:104DB0001A87098744E0BE016B5F7F4FCE010996D9
:104DC0000E94BC25E0E1F7E08491882341F09091B6
:104DD000C00095FFFCCF8093C6003196F5CFE7EF7A
:104DE000F4E08491882341F09091C00095FFFCCFBE
:104DF0008093C6003196F5CF8091C00085FFFCCF2F
:104E00008AE08093C60066960FB6F894DEBF0FBEA8
:104E1000CDBFDF91CF911F910F910895DF92EF9257
:104E2000FF920F931F93CF93DF9360917F0C70914C
:104E3000800C89E899E00E94D4EE60911F0D70917A
:104E4000200D8BE899E00E94D4EE6091210D8DE851
:104E500099E00E94BEEE6091220D7091230D8EE8C4
:104E600099E00E94D4EE4091240D5091250D60915F
:104E7000260D7091270D80E999E00E94CCEE00E5A7
:104E80001FE0E12C4CE0F42ED0E0C0E055EBD52E35
:104E90008091F114FE01EE0FFF1FD89EE00DF11D71
:104EA0001124E158F34F60817181C7010E94D4EE53
:104EB000FE0138968091F114EE0FFF1FEE0FFF1FD9
:104EC000D89EE00DF11D1124E158F34F20E030E0B1
:104ED00040E853E460817181828193810E940AE7F6
:104EE0000E9499F0C8010E94D4EEFE01789680914C
:104EF000F114EE0FFF1FEE0FFF1FD89EE00DF11D06
:104F00001124E158F34F20E030E040E752E46081A3
:104F10007181828193810E9420F020E030E040E89E
:104F200050E40E940AE70E9499F0C80102960E948C
:104F3000BEEE219682E0E80EF11C0D5F1F4FC031DE
:104F4000D10509F0A5CF48E050E061E879E088E2BA
:104F50009DE00E94B4EE6091310D7091320D80E3BE
:104F600094E00E94D4EE6091330D80E594E0DF91EF
:104F7000CF911F910F91FF90EF90DF900C94BEEEB8
:104F8000EF92FF920F931F93CF938C017B01C42F5D
:104F9000F801808191810E94A0EEF70181937F0149
:104FA000F80180819181019691838083C15081F7BE
:104FB000CF911F910F91FF90EF900895CF93DF93C2
:104FC000C82F80E098E00E94A0EE62E275E2CC2358
:104FD00021F08C1758F46BE275E28FE197E10E94A3
:104FE000C1EA8FE197E1DF91CF910895C150DD0BC8
:104FF00028E12C9FB0012D9F700D11246F5F774F1A
:1050000048E050E08FE197E10E9490EE1092271760
:10501000E8CFCF93C82F80E098E00E94A0EE63E332
:1050200073E2CC2359F02C2F30E090E0AC014F5FBD
:105030005F4F2417350751F469E273E28FE197E17E
:105040000E94C1EA8FE197E1CF910895AC014E5FD4
:105050005F4F6DE073E22417350781F303966AE131
:1050600073E22817390751F32150310988E1829FF3
:10507000B001839F700D11246F5F774F48E050E0BF
:105080008FE197E10E9490EE10922717DBCF98E115
:10509000899FB00111246F5F774F48E050E08FE1A6
:1050A00097E10E9490EE109227178FE197E1089503
:1050B00098E1899FB00111246F5F774F48E050E07D
:1050C0008FE197E10E9490EE8FE197E108950F93B1
:1050D0001F93CF938C018091F1148093680384E532
:1050E0000E941320C82F811106C0C0E08C2FCF91E1
:1050F0001F910F9108950E944C210E9499F0609396
:105100006803662391F3E1EDF5E38491882341F090
:105110009091C00095FFFCCF8093C6003196F5CFEB
:105120000936110599F00D361105E9F0083611051B
:1051300039F5EEEEFBE08491882311F19091C000E7
:1051400095FFFCCF8093C6003196F5CFE7EDFBE0ED
:1051500084918823A9F09091C00095FFFCCF8093A3
:10516000C6003196F5CFE0ECFBE08491882341F056
:105170009091C00095FFFCCF8093C6003196F5CF8B
:10518000809168039091C00095FFFCCF8093C6008A
:105190008091C00085FFFCCF8AE08093C600A6CF37
:1051A00080E090E0AAE2B3E4809337029093380263
:1051B000A0933902B0933A0280915702909158021D
:1051C0000C94CCBBCF92DF92EF92FF920F931F9380
:1051D000CF93DF9300D01F92CDB7DEB719821A822A
:1051E0001B821C82CE0101960E944BC6E091F114F5
:1051F00084E0E89FF0011124E351FB4E20813181CE
:105200004281538160E070E080EA91EC0E9420F0DE
:1052100069837A838B839C8381EFC82E84E1D82EA7
:10522000E12C10E8F12E0BEB14E49E012F5F3F4FB1
:1052300045EE54E161EE74E18DED94E10E94A9C860
:105240000E94D0280F900F900F900F90DF91CF9178
:105250001F910F91FF90EF90DF90CF900895FC0188
:10526000CB01BA012491222341F03091C00035FFD7
:10527000FCCF2093C6003196F5CF4AE00C94D8AF0E
:105280002F923F924F925F926F927F928F929F9256
:10529000AF92BF92CF92DF92EF92FF920F931F9344
:1052A000CF93DF93CDB7DEB7ED970FB6F894DEBF9F
:1052B0000FBECDBF382EC0905003D0905103E09068
:1052C0005203F090530380904C0390904D03A090B4
:1052D0004E03B0904F03A7019601C501B4010E948F
:1052E00099F16E8F7F8F88A399A300912B02109163
:1052F0002C0280911D0290911E02A0911F02B0917C
:1053000020028A8F9B8FAC8FBD8F8091F114898B87
:105310002091DD143091DE144091DF145091E0149F
:10532000C501B4010E9426EF6AA77BA78CA79DA7A1
:105330002091E1143091E2144091E3145091E4146F
:10534000C701B6010E9426EF6EA77FA788AB99AB75
:105350008091E5149091E614A091E714B091E814BF
:105360008AAB9BABACABBDAB9C01AD0160912D0694
:1053700070912E0680912F06909130060E9425EFA5
:105380006AA37BA38CA39DA3D501C401B0588E8BC7
:105390009F8BA88FB98FD701C601B0588A8B9B8B82
:1053A000AC8BBD8B2AA53BA54CA55DA560912506C0
:1053B0007091260680912706909128060E9425EF7D
:1053C0006B017C012EA53FA548A959A9609129062A
:1053D00070912A0680912B0690912C060E9425EF51
:1053E0004B015C01A70196016E897F89888D998D9B
:1053F0000E940AE72B013C01A50194016A897B897F
:105400008C899D890E940AE79B01AC01C301B2010E
:105410000E9426EF2B013C01A50194016E897F8932
:10542000888D998D0E940AE74B015C01A7019601C6
:105430006A897B898C899D890E940AE79B01AC015E
:10544000C501B4010E9425EFA30192010E94A5EFBE
:105450006B017C0120E030E0A9010E9481EB87FF15
:105460000AC02BED3FE049EC50E4C701B6010E94B1
:1054700026EF6B017C01332051F02BED3FE049EC2E
:1054800050E4C701B6010E9425EF6B017C01A70122
:1054900096016E8D7F8D88A199A10E940AE72AA1AD
:1054A0003BA14CA15DA10E9499F14B015C012FE64B
:1054B00032E143E85AE30E9481EB87FDB2C1C501A6
:1054C000B4010E94C8F00E9499F07F8F6E8FDB01BB
:1054D000AB2B21F421E030E03F8F2E8FB801110F6C
:1054E000880B990B0E9488EB2A8D3B8D4C8D5D8D2E
:1054F0000E940AE720E030E040E752E40E9420F0FA
:1055000020E030E048EC52E40E9420F06EA37FA33C
:1055100088A799A74090E9145090EA146090EB1482
:105520007090EC14AE8DBF8DBD0190E080E00E94C4
:1055300086EB4B015C01AC019B01C701B6010E94E7
:1055400020F06A8F7B8F8C8F9D8FA50194016AA1BB
:105550007BA18CA19DA10E9420F06EAB7FAB88AF98
:1055600099AFA3019201609131067091320680914A
:105570003306909134060E9425EFA50194010E9404
:1055800020F06AAF7BAF8CAF9DAF20E030E040E011
:105590005FE36A8D7B8D8C8D9D8D0E940AE72A8D3D
:1055A0003B8D4C8D5D8D0E940AE79B01AC0160E054
:1055B00070E080E89FE30E9425EF6AA37BA38CA3A1
:1055C0009DA38AA99BA9ACA9BDA989879A87AB8706
:1055D000BC874D865E866F86788A612C2224239450
:1055E000312CAE8DBF8DA215B30509F408C1B8E109
:1055F000B6150CF49BC02E893F89488D598D6A8D54
:105600007B8D8C8D9D8D0E940AE76B017C012A8920
:105610003B894C895D896AA17BA18CA19DA10E94D7
:105620000AE79B01AC01C701B6010E9426EF762E66
:10563000D72E7C012E893F89488D598D6AA17BA187
:105640008CA19DA10E940AE74B015C012A893B893C
:105650004C895D896A8D7B8D8C8D9D8D0E940AE7BA
:105660009B01AC01C501B4010E9425EF6E8B7F8BBD
:10567000888F998F6394872D9D2DD7018A8B9B8B63
:10568000AC8BBD8B2E893F89488D598D6AA57BA532
:105690008CA59DA50E9426EF69837A838B839C83CA
:1056A0002A893B894C895D896EA57FA588A999A91E
:1056B0000E9426EF6D837E838F8398872EA93FA952
:1056C00048AD59AD69857A858B859C850E9426EF0A
:1056D00069877A878B879C872AAD3BAD4CAD5DADE2
:1056E0006D857E858F8598890E9426EF6D877E87E0
:1056F0008F87988BCE0101960E942A1FDE0151965A
:105700006D01EEA0FFA008A519A59E01235F3F4FE4
:10571000AE01475F5F4FBE016B5F7F4FCE010196C9
:105720000E94A9C8BFEF2B1A3B0A5BCFB10190E0E2
:1057300080E00E9486EB2A8D3B8D4C8D5D8D0E9412
:105740000AE76B017C010E941BF02B013C01C701A1
:10575000B6010E946DF24B015C01C0904C03D090E9
:105760004D03E0904E03F0904F03F7FAF094F7F8F2
:10577000F0948091500390915103A0915203B09105
:1057800053038A8B9B8BAC8BBD8BA7019601C30106
:10579000B2010E940AE76E8B7F8B888F998F2A89CE
:1057A0003B894C895D89C501B4010E940AE79B01D0
:1057B000AC016E897F89888D998D0E9426EF6E8B52
:1057C0007F8B888F998FA7019601C501B4010E9434
:1057D0000AE76B017C012A893B894C895D89C301F9
:1057E000B2010E940AE79B01AC01C701B6010E9409
:1057F00025EF6A8B7B8B8C8B9D8B612C43CF9E011D
:105800002F5E3F4F6901EEA0FFA008A519A521E377
:1058100036E04DE256E069E276E085E296E00E94ED
:10582000A9C8E5E2F6E0ADEDB4E141915191619195
:1058300071914D935D936D937D9336E0E533F3075E
:10584000A1F70E942EB76093600370936103809369
:10585000620390936303ED960FB6F894DEBF0FBE1C
:10586000CDBFDF91CF911F910F91FF90EF90DF900F
:10587000CF90BF90AF909F908F907F906F905F90F0
:105880004F903F902F900895AF92BF92CF92DF92AA
:10589000EF92FF920F931F93CF93DF93CDB7DEB7B5
:1058A000E0970FB6F894DEBF0FBECDBF80E1EAE50A
:1058B000F2E0DE01119601900D928A95E1F780E108
:1058C000EAE6F2E0DE01519601900D928A95E1F749
:1058D00080E1EAE7F2E0DE01919601900D928A956F
:1058E000E1F7CE0101965C0162EF74E1DE015196B1
:1058F0004BE457E09E012F5D3F4F88E797E08D0115
:10590000F501C190D190E190F1905F01FB01C1924E
:10591000D192E192F192BF01CD90DD90ED90FD909A
:10592000FA01C192D192E192F192AF01F901C190D5
:10593000D190E190F1909F01FC01C192D192E1924E
:10594000F192CF01A016B106D9F60E9428C380E0DB
:1059500090E8ABE3B5E48093430790934407A093AA
:105960004507B09346078093470790934807A09355
:105970004907B0934A0710925F0710926007109290
:1059800061071092620780E29EE4A0E0B0E080939D
:105990005B0790935C07A0935D07B0935E0710923E
:1059A000630710926407109265071092660780E003
:1059B00090E0A0EAB1E480933F0790934007A09362
:1059C0004107B09342078DEC9CECACECBEE38093B6
:1059D0003B0790933C07A0933D07B0933E0780E0C0
:1059E00090E0A0EAB0E48093370790933807A09343
:1059F0003907B0933A071092450610924606109266
:105A000047061092480610924106109242061092E4
:105A100043061092440610923D0610923E061092E4
:105A20003F061092400689E29CE5A2E1B2E4809331
:105A3000430290934402A0934502B093460286E845
:105A400092EFA4EFBDE380934D0290934E02A0939A
:105A50004F02B093500288E291EFAEE2B5E480933A
:105A60003F0290934002A0934102B09342020E94F1
:105A7000B5BB80E090E0A0E8BFE380930002909384
:105A80000102A0930202B093030280EB94E0909392
:105A9000540280935302909356028093550282EEF3
:105AA00094E0909358028093570284E680932A02F0
:105AB00010921E0780E090E0A0EDB0E480933102E8
:105AC00090933202A0933302B093340280E090E8C6
:105AD000ABEBB4E480932D0290932E02A0932F029F
